:100000000C943E000C9448000C9448000C9448005A
:100010000C9448000C9448000C9448000C94480040
:100020000C9448000C9448000C9448000C94480030
:100030000C9448000C9448000C9448000C94480020
:100040000C9448000C9448000C9448000C94480010
:100050000C9448000C9448000C9448000C94480000
:100060000C9448000C9448000C9448000C944800F0
:100070000C9448000C9448000C94480011241FBEB6
:10008000CFEFD0E1DEBFCDBF0E944A000C945900F3
:100090000C9400008FEF87B928E331E086B180959A
:1000A00088B988E592E0F9013197F1F70197D9F71E
:0600B000F5CFF894FFCF2C
:00000001FF
